:020000040800F2
:1000000088100024E10200089F43000867410008AF
:100010009D4300088B0800084D4F000800000000B9
:10002000000000000000000000000000E54500089E
:100030008D08000800000000A1430008E745000803
:10004000FB020008FB020008FB020008FB0200089C
:10005000FB020008FB020008FB020008FB0200088C
:10006000FB020008FB020008FB020008FB0200087C
:10007000FB020008FB020008FB020008FB0200086C
:10008000FB020008FB020008FB02000895080008BC
:10009000FB020008A1080008FB020008FB020008A0
:1000A000FB020008FB020008FB020008FB0200083C
:1000B000FB0200084547000851470008FB02000802
:1000C000FB020008FB020008FB020008FB0200081C
:1000D000FB020008414F0008FB020008FB02000879
:1000E000FB020008FB02000800000000FB02000801
:1000F000FB020008FB020008FB020008FB020008EC
:10010000FB020008FB020008FB020008FB020008DB
:10011000FB020008FB020008FB020008FB020008CB
:10012000FB020008FB020008FB020008FB020008BB
:10013000FB020008FB020008FB020008AD080008F3
:1001400000000000000000000000000000000000AF
:10015000FB020008FB020008FB020008FB0200088B
:10016000FB020008FB020008FB020008FB0200087B
:10017000FB020008FB020008FB0200080000000070
:10018000FB020008FB020008FB020008FB0200085B
:10019000FB020008FB020008FB020008FB0200084B
:1001A000FB020008FB020008FB0200080000000040
:1001B000FB020008FB020008FB020008FB0200082B
:1001C000FB020008FB020008000000000000000025
:1001D0000000000000000000FB020008000000001A
:1001E000000000000000000000000000000000000F
:1001F0000000000000000000FB020008FB020008F5
:10020000FB020008FB02000800000000FB020008DF
:10021000FB020008FB020008FB020008FB020008CA
:10022000FB02000800000000FB02000800000000C4
:10023000FB020008FB02000800000000FB020008AF
:10024000FB020008FB020008FB020008FB0200089A
:10025000FB020008FB020008FB020008FB0200088A
:10026000FB020008FB020008FB020008FB0200087A
:10027000FB020008FB020008FB020008000000006F
:10028000FB020008FB020008FB020008FB0200085A
:1002900000000000FB020008FB0200080000000054
:1002A00000000000FB020008FB020008FB0200083F
:1002B000FB020008FB020008FB020008FB0200082A
:1002C000FB020008FB020008FB020008DFF80CD06C
:1002D00000F05AFA00480047D55C00088810002456
:1002E0000648804706480047FEE7FEE7FEE7FEE7D0
:1002F000FEE7FEE7FEE7FEE7FEE7FEE785460008CD
:10030000CD0200082DE9F05F0546002092469B468D
:1003100088460646814640241BE02846414647461B
:10032000224600F069F853465A46C01A914110D34C
:1003300011461846224600F050F82D1A67EB0108C6
:100340004F4622460120002100F047F817EB000934
:100350004E41201EA4F10104DFDC484631462A4606
:100360004346BDE8F09F40EA01039B0703D009E044
:1003700008C9121F08C0042AFAD203E011F8013B91
:1003800000F8013B521EF9D27047D2B201E000F8EA
:10039000012B491EFBD270470022F6E710B5134629
:1003A0000A4604461946FFF7F0FF204610BD30B557
:1003B0000B46014600202022012409E021FA02F523
:1003C0009D4205D303FA02F5491B04FA02F52844BD
:1003D000151EA2F10102F1DC30BD202A04DB203A17
:1003E00000FA02F1002070479140C2F1200320FA88
:1003F00003F3194390407047202A04DB203A21FA86
:1004000002F00021704721FA02F3D040C2F120022D
:1004100091400843194670472DE9FE4F804681EA16
:100420000300C00F0C46009021F0004123F000456E
:10043000B8EB0200A94105D24046214690461C4631
:100440000B46024623F00040104347D0270DC7F368
:100450000A00C3F30A510290401A019040286BDA57
:10046000C3F3130040F4801B0098924620B1002390
:10047000D2EB030A63EB0B0B01985946C0F1400223
:100480005046FFF7AAFF06460D4650465946019AC8
:1004900000F08CF910EB08006141002487EA11524A
:1004A00084EAE7731A4340D0009A62B3019A012AA2
:1004B0004FEA075215DC001B61EB02014FF00042CE
:1004C00002EA0752CDE90042001C41F58011324694
:1004D0002B4600F08CF903B0BDE8F08F4046214672
:1004E000F9E7001B61EB0201001C41F580130018C5
:1004F0005B412018A2F5001747EB030140EAD570D5
:10050000B6196D4111E06D084FEA360645EAC0752F
:100510004FEA0752001B61EB0201001C41F58011FC
:1005200049084FEA30000019514132462B4603B0CA
:10053000BDE8F04F00F04CB90098012240000023C4
:10054000D0EB020263EBE073009821464FEAE074BF
:10055000B8EB000061EB0401E9E783F000435BE7DF
:1005600081F0004158E72DE9FE4F81EA030404F0D1
:10057000004421F0004100944FF0000B23F00043B1
:1005800050EA01045ED052EA03045BD0C3F30A547C
:10059000C1F30A552C44A4F2F3340194A0FB025495
:1005A000C1F3130141F48011C3F3130343F4801327
:1005B00001FB024400FB034E840A970A44EA81547B
:1005C00047EA8357A4FB076802958D0A05FB078558
:1005D0004FEA932C04FB0C542705029D4FEA065862
:1005E00047EA1637B5EB08056EEB070C870E920E3F
:1005F00047EA811742EA8312A7FB0201B6EB0B011F
:1006000064EB00042B0D43EA0C335E1844EB1C50E2
:10061000DA465146E7FB0201C5F313044FEA0B33F8
:1006200043EA14534FEA0432019C43EA0603A4F15F
:100630000C040294009CCDE900B400F0D8F803B09B
:10064000BDE8F08F00200146F9E72DE9F04D81EA81
:10065000030404F0004B21F0004514464FF0000A5B
:1006600023F0004150EA050220D054EA01021DD0D7
:10067000C5F30A570246C5F31303C1F31300C1F3D0
:100680000A5640F4801543F48013A7EB0608101BAC
:10069000D64608F2FD3873EB050002D308F10108D5
:1006A00001E092185B41B8F1000F03DA0020014627
:1006B000BDE8F08D00204FF48011064684460EE020
:1006C000171B73EB050705D3121B63EB05030643EA
:1006D0004CEA010C49084FEA300092185B4150EA9D
:1006E0000107EDD152EA030012D082EA040083EA46
:1006F0000501084305D0101BAB4106D2012200239F
:1007000006E000224FF0004302E06FF001025310B8
:100710001AEB06004CEB085110EB0A0041EB0B0101
:10072000BDE8F04D00F054B8C1F30A52C1F3130113
:1007300040F2FF3341F480119A4202DA0020014670
:10074000704740F233439A42A2F2334202DC5242F3
:10075000FFF752BEFFF741BE30B5041E71F1000431
:1007600004DB4FF00044404264EB0101141E73F1BE
:10077000000405DB1C464FF00043524263EB0403C8
:10078000994208BF904230BD064C074D06E0E06834
:1007900040F0010394E8070098471034AC42F6D3C8
:1007A000FFF798FD0866000828660008202A06DB87
:1007B000CB17203A41FA02F043EAE07306E041FA2F
:1007C00002F3D040C2F1200291400843194670471D
:1007D00010B5141E73F1000408DA401C41F1000149
:1007E00092185B411A4301D120F0010010BD2DE9A0
:1007F000F04D92469B4611B1B1FA81F202E0B0FA97
:1008000080F220329046FFF7E8FD04460F4640EAAA
:100810000A0041EA0B0153465A46084313D01146D9
:1008200053EA010019D0C8F140025046FFF7E4FD39
:1008300005460E46504659464246FFF7CEFD084350
:1008400005D0012004E020463946BDE8F08D0020A7
:10085000054346EAE0762C4337430A986305E40AE9
:10086000A0EB08000022FD0A44EA47540A3002D5F2
:1008700000200146E9E7010510196941DDE9084555
:1008800000196941BDE8F04DA2E7FEE7704772B676
:10089000FEE70000014800F011BE0000180000242F
:1008A000014800F00BBE000018000024014800F0D1
:1008B00005BE000018000024F0B503684FF6FC7177
:1008C0006D4C426BD3F884508D4345EA8205C3F8E2
:1008D0008450036853F8845F068F25F47F0545EA4A
:1008E00006451D60836B654D9F180268D2F88830FD
:1008F0008B4343EA8703C2F88830026852F8883F86
:10090000868F23F4FE0343EA06431360066856F815
:10091000A03FC26B8B4307EB420243EA8203336082
:10092000076857F8A03FB0F8406023F4FE0343EA9D
:1009300006433B60D0E9103603FB06220368D3F878
:10094000B0608E4346EA8206C3F8B0600368B0F830
:100950004860D3F8B07027F4FE0747EA0646C3F8AC
:10096000B060D0E91267036806FB0722D3F8AC60D9
:100970008E4346EA8206C3F8AC60D0E91467036888
:1009800006FB0722D3F8F0608E4346EA8206C3F8DE
:10099000F0600368B0F85860D3F8F07027F47C1763
:1009A00047EA0646C3F8F0600368876D53F8C06FE6
:1009B00002EB47028E4346EA820119600168B0F8F3
:1009C0005C20D1F8C03023F47C1343EA0242C1F822
:1009D000C020016890F86020D1F8C03023F07C532B
:1009E00043EA0262C1F8C020416B04EB8101C16699
:1009F000826B01EB82020267C36B02EBC3024267A8
:100A0000D0E91034634302EB83028267D0E91234E9
:100A1000634302EB8302C267D0E91434634302EB01
:100A20008302C0F88020836D02EBC303C0F88430DA
:100A3000C46D826E544303EB8403C0F88830046EA7
:100A4000544303EB8402C0F89020AA420AD9D0F89C
:100A50009C20032142F02002C0F89C2080F89810CE
:100A60000120F0BD002200E004C1D0F890308B429C
:100A7000FAD80020F0BD000000AC0040FCD30040DC
:100A8000F0B58E680C69D1E9005744EA0604DFB17D
:100A900045F080452C43866ED1E906C54F695E431B
:100AA00091F8203045EA0C05B1F80CC0D0F884E08C
:100AB000002047EA03630C4F1D430EEB860345EA13
:100AC0000C45E3E802450AE044EA8544E3E71418EC
:100AD000155C001DD4F8014045EA042410C3CC681D
:100AE0003C5D8442F3D8F0BD746500082DE9F84FF1
:100AF000044601F045FA00903CB194F83500022814
:100B000006D0802161650020E4E00120BDE8F88F77
:100B1000C74DC74EC649183520683036DFF81483F4
:100B2000DFF814938842DFF814A3DFF814B32ED053
:100B3000A8422CD0B0422AD0404528D0484526D0E3
:100B4000504524D0584522D0BD4A183290421ED07C
:100B5000BC4A90421BD0BB4A1832904217D0B94AC7
:100B60003032904213D0B74A483290420FD0B54A43
:100B7000603290420BD0B34A7832904207D0B14AEB
:100B80009032904203D0AF4AA832904209D1026815
:100B900022F01E0202602068426922F08002426157
:100BA00003E0026822F00E02026027688F42384696
:100BB0004DD0A8424BD0B04249D0404547D04845DF
:100BC00045D0504543D0584541D09D4A18329042B7
:100BD0003DD09C4A90423AD09A4A1832904236D040
:100BE000984A3032904232D0964A483290422ED0C3
:100BF000944A603290422AD0924A7832904226D06B
:100C0000904A9032904222D08E4AA83290421ED012
:100C10008D4A90421BD08C4A1432904217D08A4A97
:100C20002832904213D0884A3C3290420FD0864AF4
:100C3000503290420BD0844A6432904207D0824AAC
:100C40007832904203D0804A8C32974204D1206E91
:100C5000026822F48072026075492068884228D0B8
:100C6000A84226D0B04224D0404522D0484520D0CA
:100C700050451ED058451CD071491831884218D0B3
:100C80007049884215D06F491831884211D06D499A
:100C9000303188420DD06B494831884209D06949CA
:100CA0006031884205D067497831884201D0654972
:100CB0009031016821F0010101600EE001F060F95E
:100CC0000099401A052808D92022626503210020D6
:100CD00084F8351084F8340017E73868C007EDD180
:100CE000534A0121206890422ED0A8422CD0B04215
:100CF0002AD0404528D0484526D0504524D05845D4
:100D000022D04F4B183398421ED04E4B98421BD0E6
:100D10004C4B1833984217D04A4B3033984213D07B
:100D2000484B483398420FD0464B603398420BD023
:100D3000444B7833984207D0424B9033984203D0CB
:100D4000404BA833984208D194F85C703F23A06DC3
:100D500007F01F07BB40836007E094F85C30A06D8C
:100D600003F01F0301FA03F34360206890424DD063
:100D7000A8424BD0B04249D0404547D0484545D025
:100D8000504543D0584541D02D4A183290423DD06D
:100D90002C4A90423AD02B4A1832904236D0294AF7
:100DA0003032904232D0274A483290422ED0254AE3
:100DB000603290422AD0234A7832904226D0214A8B
:100DC0009032904222D01F4AA83290421ED01E4A32
:100DD00090421BD01C4A1432904217D01A4A283233
:100DE000904213D0184A3C3290420FD0164A5032EB
:100DF00090420BD0144A6432904207D0124A7832A3
:100E0000904203D0104A8C3290420BD1D4E919029F
:100E10004260E06E30B1026822F480720260D4E970
:100E20001C024260002084F8351084F834006DE61E
:100E3000100002405800024070000240880002404A
:100E4000A000024010040240085402582DE9F05F4F
:100E500028B190F83510022904D080214165012085
:100E6000BDE8F09F904C904B0168183C18338E4AB7
:100E7000DFF83C92A1428D4CDFF838E28E4FDFF86C
:100E80003CB2DFF83CA28F4D8F4E31D091422FD033
:100E900099422DD0A1422BD0494529D0714527D068
:100EA000B94225D0DFF810C20CF1180C61451FD0F3
:100EB000DFF808C2ACF1600C614519D0DFF8FCC165
:100EC000ACF1480C614513D0DFF8F0C1ACF1300C47
:100ED00061450DD0DFF8E4C1ACF1180C614507D0D5
:100EE000594505D0514503D0A94201D0B1422CD17A
:100EF000DFF8B4C14FF0040880F83580ACF1180C6D
:100F000061451DD091421BD0994219D0A14217D002
:100F1000494515D0714513D0B94211D066481830F3
:100F200081420DD065486038814209D06348483815
:100F3000814205D061483038814201D05F4818387D
:100F4000086820F001000860ABE0D1F800C02CF088
:100F50000E08DFF854C1C1F80080ACF1180C01682C
:100F6000614527D0914225D0994223D0A14221D07A
:100F700049451FD071451DD0B9421BD0DFF838C19B
:100F80000CF1180C614515D0DFF830C1ACF1600CE4
:100F900061450FD0DFF824C1ACF1480C614509D0A0
:100FA000DFF818C1ACF1300C614503D0DFF80CC19B
:100FB000ACF1180CD1F800C02CF0010CC1F800C045
:100FC000DFF8E4804FF0010C0168A8F118084145F2
:100FD00046D0914244D0994242D0A14240D04945A6
:100FE0003ED071453CD0B9423AD0334A1832914292
:100FF00036D0324A603A914232D0304A483A914231
:101000002ED02E4A303A91422AD02C4A183A914298
:1010100026D0594524D0514522D0A94220D0B142F2
:101020001ED02A4A91421BD0284A1432914217D02E
:10103000264A2832914213D0244A3C3291420FD0A2
:10104000224A503291420BD0204A6432914207D05A
:101050001E4A7832914203D01C4A8C32914218D1F8
:10106000016E0A6822F480720A6090F85C20816D3B
:1010700002F01F020CFA02F24A60D0E919124A602B
:10108000C16E31B10A6822F480720A60D0E91C1284
:101090004A600022016D80F835C080F8342001B12B
:1010A00088470020DCE6000028000240580002408B
:1010B0007000024088000240A0000240700402401C
:1010C00088040240A0040240B804024008540258B8
:1010D00070B5044600F054FF0546601C02D0044879
:1010E0000078044400F04CFF401BA042FAD370BDCE
:1010F0000000002410B590F89830012B09D0022B85
:1011000007D0D0F89C1041F00201C0F89C100120DB
:1011100010BD03689C6D0C4203D1DC6D44F00104EA
:1011200004E09C6D31EA04041FD00324DC658B05C8
:1011300005D50368D3F8E0401443C3F8E0404B05FD
:1011400005D50368D3F8E4401443C3F8E4400068CD
:10115000084A01EA0203446D074A1C4344651068CB
:1011600040EA91701060002010BDDC6D44F0020474
:10117000DCE70000FFFFCF3F14A8004070B5044635
:1011800090F89800022804D0D4F89C0040F00800A1
:101190000DE02068D0F8C03013F07C5F0BD0D0F8A1
:1011A000C4309B020CD5D4F89C0040F40070C4F805
:1011B0009C00012070BDD4F89C0040F02000F6E7B0
:1011C000D0F8C400C0F3044520462B46FFF758FC76
:1011D00021680120A840C1F8D000C4F89400002084
:1011E00070BD704790F89830012B07D0D0F89C1054
:1011F00041F00401C0F89C100120704761B1006803
:10120000012913D0D0F8B01021F0FE4141EA02616B
:10121000C0F8B010002070470068D0F8F01021F03E
:101220007C5141EA0261C0F8F010F3E7D0F8A01059
:1012300021F0FE4141EA0261C0F8A010EAE770B572
:1012400090F89820012A09D0022A07D0D0F89C10E3
:1012500041F00201C0F89C10012070BD0B68CA6803
:1012600083B10B69072A43EA427325D00C7A4A6995
:1012700042EA84724968006F00EBC100C0E90032A5
:10128000002070BD072A0DD00C7AD6060D8A4B6956
:1012900043EA847246EA0543C06E49681A4340F83F
:1012A0002120EDE70B8A4FF06055D1E9062442EA90
:1012B000034245EA0423EFE78A69DBE730B590F89B
:1012C0009850039C012D07D0D0F89C1041F00401E8
:1012D000C0F89C10012030BD0D01016845EA820074
:1012E00040EA43002043C1F88000002030BD10B523
:1012F00004000FD000F036FC2068C16D21F003011E
:10130000C165204600F08CFB0020C4F89C0084F8E6
:10131000980010BD012010BD7047890104D50068F8
:10132000816921F00101816170470000F0B590F8FA
:1013300098500024022D04D0D0F89C1041F00801F0
:1013400029E0402905D0412929D0056D8D4219D9C0
:1013500042E00568D5F8A06016F4FE0F12D0D5F86B
:10136000A460760613D0D5F8A460F60105D5D5F8AB
:10137000A06016F0004F00D50124D5F8A470466F88
:10138000456C24E0D0F89C1041F0200103E0D0F837
:101390009C1041F48071C0F89C100120F0BD0568DC
:1013A000D5F8B06016F4FE0FECD0D5F8B460760630
:1013B000EDD0D5F8B460F60105D5D5F8B06016F0DB
:1013C000004F00D50124D5F8B470866FC56CC7F303
:1013D00005273C44654302E0456DC66F4D4306EB6F
:1013E00085052E6816F0804656602E6836D026F0A9
:1013F00060461660D5F800C000262E4F0CF0005C49
:10140000C2F808C0D5F800C00CF0004CC2F810C0FB
:10141000B5F804C01FFA8CFCC2F81CC0D5F804C093
:10142000CCF3034CC2F80CC0D5F804C00CF4801CFB
:10143000C2F814C0D5F804C00CF4001CC2F818C0DF
:10144000D5F804C0CCF3066CC2F820C0D5F804C0AF
:1014500008354FEADC7CC2F824C008E0C6F38A46AF
:10146000C7E700BF15F806C003F806C0761CD2F81F
:101470000CC017F80CC0B445F4D840290AD0412953
:101480000CD020294FF001020CD200688A40C0F82D
:1014900098200DE00068C0F8A84009E00068C0F896
:1014A000B84005E0006801F01F018A40C0F89C20A8
:1014B0000020F0BD74650008704700002DE9FF5F53
:1014C000DFF80CB304460BF10401DBF800002568DB
:1014D0000F68AA468007D5F85090696DD5F85080FE
:1014E0006E6D2A6DD5F854C02B6D00EA87700090A0
:1014F00009F470496F6D286D01EA09010191DAF86C
:101500005410DAF85490DAF8505008F00F0806EA50
:101510000806029602F0F00203F071536FEA090622
:101520001F4000F060700CEA020CCDF80CC0F20510
:1015300001EA00090CD4E843C00509D400214FF4A6
:101540008073CAF85030CBF800102046FFF7B4FF84
:10155000700512D4E84340050FD4206800234FF4EF
:101560008068D0F8DC20D0F8E410C0F85080CBF8C8
:1015700000301140204600F03AFBDFF858A20098F6
:1015800050B12268830F00EA0A001065CBF80030E2
:1015900020460099FFF725FE019850B12268830F7D
:1015A00000EA0A001065CBF800302046019900F0EF
:1015B00020FB029850B12268830F00EA0A001065F0
:1015C000CBF800302046029900F0A8FA039850B1F9
:1015D0002268830F00EA0A001065CBF8003020462D
:1015E000039900F0A5FA30050CD4E843000509D4AE
:1015F000236800204FF400621A65CBF800002046F3
:1016000000F0F8FAB00512D4E84380050FD4206842
:1016100000234FF40078D0F8D820D0F8E010C0F8BC
:101620005080CBF800301140204600F0E1FA300342
:101630000CD4E843000309D4236800204FF40022AF
:101640001A65CBF80000204600F066FAF0030CD4CF
:10165000E843C00309D4236800204FF480321A65A0
:10166000CBF80000204600F0C1FA70030CD4E84328
:10167000400309D4226800204FF480231365CBF87F
:101680000000204600F0B1FAB0030FD4E843800315
:101690000CD4236800204FF400321A65CBF8000008
:1016A000D4F89C0040F08000C4F89C00B9F1000F11
:1016B0000BD022684FEA997309EA0A001065CBF84B
:1016C000003049462046FFF728FE5FB12268BB0F75
:1016D00007EA0A001065CBF80030D4F89C003843C4
:1016E000C4F89C003C492068884268D16068814603
:1016F0008068800763D0D9F82060D9F82410D9F821
:101700002080D9F82400D9F820C0D9F82470D9F85D
:101710002030D9F82450D9F8202003F4FC4306F0F7
:101720000F0AD9F824601D40D9F824B008F0300819
:101730000CF4C07C02F4F02211EA0A0100EA080865
:1017400007EA0C0706EA0206D9F820A004D0C9F877
:101750002010204600F046FAB8F1000005D061687C
:1017600008624146204600F03FFA6FEA0B0040064F
:101770000ED46FEA0A0040060AD460684021C36BA9
:10178000C26B01622046190C02F03F0200F02BFAF6
:101790002FB1606807623946204600F022FA35B161
:1017A00060680562D4F89C002843C4F89C0036B1F8
:1017B00060680662D4F89C003043C4F89C00D4F8FA
:1017C0009C00002802D02046FFF7A6FDBDE8FF9F41
:1017D00010A80040FFFFCF3F00A000402DE9F041DE
:1017E00094B08D494C2204466846FEF7BCFD64B1B6
:1017F0008A4D2068A84202D100F58070606094F89C
:1018000098004FF0000820B108E0012014B0BDE8B6
:10181000F081204684F8998000F022F920688169DF
:1018200021F01001816100F0ABFB0327064604E0C4
:1018300000F0A6FB801B0A2811D8206880690007E9
:10184000F6D42068816941F00101816100F098FBC4
:1018500006460DE000F094FB801B0A2808D9D4F856
:101860009C0040F00100C4F89C0084F89870CCE71C
:1018700020688069C007EDD02068816941F00201CD
:101880008161207C01282068816937D041F04001C6
:101890008161607C01282068816932D021F4804117
:1018A0008161A07C0128206881692DD041F480519C
:1018B00081612068A268816921F4407111438161CE
:1018C0002068816921F0A40181612068016921F00B
:1018D00010010161E068012819D010B302281BD063
:1018E0002068816941F0800181612068016941F0CF
:1018F00010010161E06803280ED012E021F04001E0
:10190000C6E741F48041CBE721F48051D0E720685D
:10191000816941F0040103E02068816941F0200100
:101920008161207E6FF0FF02D4E90773A68A11025D
:10193000400602EB0727A0F10070384327685B1EC2
:10194000184301EB06463043F861A068B0F5407FCC
:1019500011D104F12800A68C6FF00F0C89C801EB9F
:101960000641401E02EB0322104322680CEB0713D2
:1019700018430843D060206E30B12068626ED0F802
:10198000C0101143C0F8C010D4E917126846D14204
:1019900009D02168A36E51F8C82F50F8233022F0E7
:1019A00007021A430A60216C49B12168626C51F840
:1019B000BC3F50F8226023F0070232430A60A16C5A
:1019C00051B12168E36C51F8BC2F50F8233022F05C
:1019D000700242EA03120A60216D51B12168626D02
:1019E00051F8BC3F50F8220023F4E06242EA0020A4
:1019F00008602068A84204D16068816821F0030172
:101A00008160C4F894800121C4F89C8084F8981007
:101A10002046FEF751FFF9E68465000800A000406B
:101A200010B500680B49884213D10B48016821F4B6
:101A3000807101600948032100F0DEF8132000F0F6
:101A400009FB152000F006FBBDE810403F2000F028
:101A500001BB10BD00A00040EC440258000C02582D
:101A600010B5B4B0044614212EA8FEF795FCB82199
:101A70006846FEF791FC25492068884244D1002041
:101A80004FF40041CDE900104A0368461B9200F074
:101A9000B1FC08B1FEF7FBFE1D48016841F48071FE
:101AA0000160006800F48070339019480C380168B8
:101AB00041F00801016000680923032100F00800DB
:101AC000339000202E9102222EA9CDE92F20CDE9BE
:101AD0003103104800F040F900221320114600F0B5
:101AE000D7FA132000F0C7FA00221520114600F0A3
:101AF000CFFA152000F0BFFA00223F20114600F077
:101B0000C7FA3F2000F0B7FA34B010BD00A0004083
:101B1000EC440258000C025870470000034910B50D
:101B2000884201D104F020F810BD00001800002404
:101B3000704790F89810012907D0D0F89C1041F018
:101B40000401C0F89C1001207047022180F8981011
:101B5000002201688B6923F001038B61C0F89C208F
:101B60001046704710B590F898100022022906D050
:101B7000D0F89C1041F00801C0F89C1012E00168F8
:101B800003238C6944F001048C6101680DE0322A62
:101B90000AD900BFD0F89C1041F00101C0F89C1098
:101BA00080F89830012010BD521C8C69E407EED0FB
:101BB0008C69002224F010048C61016802E0322A52
:101BC000E8D8521C8C692407F9D48C6900230122BF
:101BD00044F002048C61C0F8943080F898201846D4
:101BE00010BD704770477047704770477047704727
:101BF00070477047704700002DE9F04F4C4D0022B0
:101C00004FF0010A4FF00F0B8BE000BF0AFA02F908
:101C100019EA01037DD022F0030606F1B0469407CD
:101C2000D6F808C4270FDFF80C810BFA07FE4045F1
:101C30000EEA0C0402D14FF0000C39E0DFF8F8C0D6
:101C4000604502D14FF0010C32E0DFF8F0C0604592
:101C500002D14FF0020C2BE0DFF8E4C0604502D166
:101C60004FF0030C24E0DFF8DCC0604502D14FF0F8
:101C7000040C1DE0DFF8D0C0604502D14FF0050C28
:101C800016E0DFF8C8C0604502D14FF0060C0FE047
:101C9000DFF8BCC0604502D14FF0070C08E0DFF868
:101CA000B4C0604502D14FF0090C01E04FF00A0CBE
:101CB0000CFA07FCA44513D12C689C432C606F6878
:101CC0004FF0B0449F436F6067689F436760276829
:101CD0009F432760D6F8084424EA0E04C6F8084457
:101CE00006680323D7084FEA42084FEA427C03FA0A
:101CF00008F34FEADC6C1E4306600BFA0CF400EBB1
:101D000087073E6AA6433E62C4689C43C460446839
:101D100000E005E024EA0904446084689C43846090
:101D2000521C31FA02F37FF471AFBDE8F08F00006E
:101D300080000058000002580004025800080258B1
:101D4000000C0258001002580014025800180258E3
:101D5000001C0258002402582DE9F84F03247A4D44
:101D600000234FF001094FF0B04B4FF00F0AE4E0B1
:101D700009FA03F6324078D00F7907F00307012FF4
:101D800001D0022F1AD187684FEA430ED1F80CC058
:101D900004FA0EF827EA08070CFA0EFC4CEA070CC6
:101DA000C0F808C0476891F804C0B743CCF3001CE2
:101DB0000CFA03FC4CEA070CC0F804C00E79F64399
:101DC000B6070BD0C6684FEA43088F6804FA08FCD0
:101DD00026EA0C0607FA08F73743C7600E7906F0C3
:101DE0000306022E12D1DE080F694FEA437C00EB96
:101DF0008606B646366A4FEADC6C0AFA0CF807FA31
:101E00000CF726EA08063743CEF820700F790668EB
:101E10004FEA430807F0030704FA08FC07FA08F73B
:101E200026EA0C06374307604E6816F4403F1CD084
:101E3000464E376847F00207376036689F0706F05E
:101E40000206009623F0030606F1B046B6463F0FA1
:101E5000D6F80864DFF8F8800AFA07FC404526EA5D
:101E60000C0603D14FF0000C3AE065E0DFF8E4C067
:101E7000604502D14FF0010C32E0DFF8DCC0604574
:101E800002D14FF0020C2BE0DFF8D0C0604502D148
:101E90004FF0030C24E0DFF8C8C0604502D14FF0DA
:101EA000040C1DE0DFF8BCC0604502D14FF0050C0A
:101EB00016E0DFF8B4C0604502D14FF0060C0FE029
:101EC000DFF8A8C0604502D14FF0070C08E0DFF84A
:101ED000A0C0604502D14FF0090C01E04FF00A0CA0
:101EE0000CFA07FC4CEA060CCEF808C44F68DBF885
:101EF0000060FF0226EA020600D516435F46CBF8D3
:101F00000060D1F804C0DBF804605FEA8C2C26EA9C
:101F1000020600D516437E606E684F6826EA020608
:101F2000BF0300D516436E602E684F6826EA02068E
:101F3000FF0300D516432E605B1C0A6832FA03F6D5
:101F40007FF416AFBDE8F88F80000058F4440258C3
:101F5000000002580004025800080258000C025801
:101F6000001002580014025800180258001C0258B1
:101F7000002402580AB1816170470904FBE70000A0
:101F80000148806870470000000000240248816812
:101F9000027811448160704700000024032010B5CE
:101FA00000F096F801F038F80F4A104914681368E9
:101FB000C4F3032203F00F038A5CC95C02F01F0222
:101FC00001F01F01D0400A4A20FA01F111600949CD
:101FD00008600F2000F010F808B1012010BD00F0DB
:101FE0002BF8002010BD000018440258F8650008C6
:101FF000100000240C00002470B50D4D0446287814
:10200000A0B14FF47A71B1FBF0F00A490968B1FB55
:10201000F0F001F030FB48B9102C07D20022214625
:10202000501E00F035F800206C6070BD012070BDBE
:10203000000000240C000024054808B5016841F0A8
:1020400002010160006800F00200009008BD00007D
:10205000F444025800280DDB410900F01F028900FA
:10206000012001F1E0219040C1F88001BFF34F8FC2
:10207000BFF36F8F7047002809DB410900F01F0292
:102080008900012001F1E0219040C1F80001704772
:102090000E4BF0B41B680D46C3F30223C3F10706D1
:1020A000042E00D90426191D072901D2002300E0BF
:1020B000DB1E012404FA06F19C40491E2940641EDF
:1020C000994014402143F0BC02F052BF0CED00E0F7
:1020D000064900F0070210B54FF6FF040868044BEC
:1020E000204040EA02201843086010BD0CED00E0DB
:1020F0000000FA05134970B50A68D243520705D5A6
:10210000096801F00701814213D118E00A6822F042
:10211000070202430A60FFF733FF0A4D4FF47A7655
:102120000446083D07E000BFFFF72AFF001BB0424E
:1021300001D9012070BD2868C0438004F4D4002078
:1021400070BD00000C48025810B500F01FFF054993
:102150000968054AC1F30211515C01F01F01C84032
:1021600010BD000020440258F8650008494930B508
:10217000484C0B1D0A68143409681D68246802F075
:102180000303C5F30012C1F30531C4F3CC040029E5
:1021900014FB02F200EE102AF8EE400A75D03F4A16
:1021A0009FED3D1AB7EE000A6BB1DFED3D1A012B32
:1021B00001D0022B64D002EE101A1168F8EE422A08
:1021C00081EEA22A21E0334C283C23689B0612D5DD
:1021D000344B246801EE901A1168C4F3C104F8EE80
:1021E000612AE34001EE903AC1F30801F8EE611A6A
:1021F00081EEA22A0BE001EE901ADFED2B2A00BF40
:10220000F8EE611A116882EEA12AC1F3080101EE0D
:10221000901A1168F8EE611A40EE811A71EE800A88
:1022200062EE200AC1F3462101EE101AB8EE411AFF
:1022300031EE001AC0EE811ABCEEE11A80ED001AF0
:102240001168C1F3064101EE101AB8EE411A31EEE1
:10225000001AC0EE811ABCEEE11A80ED011A116875
:10226000C1F3066101EE101AB8EE411A31EE000A10
:1022700080EE801ABCEEC10A80ED020A30BD04E097
:1022800001EE901ADFED092ABAE7002101604160F2
:102290008160F3E7284402580000003938440258AE
:1022A0000024744A0090D0030024744C001BB74BE8
:1022B000494930B5484C0B1D0A681C3409681D6833
:1022C000246802F00303C5F30022C1F30551C4F3EF
:1022D000CC04002914FB02F200EE102AF8EE400AAA
:1022E00075D03F4A9FED3D1AB7EE000A6BB1DFEDA6
:1022F0003D1A012B01D0022B64D002EE101A116896
:10230000F8EE422A81EEA22A21E0334C283C2368D1
:102310009B0612D5344B246801EE901A1168C4F361
:10232000C104F8EE612AE34001EE903AC1F30801DE
:10233000F8EE611A81EEA22A0BE001EE901ADFEDB1
:102340002B2A00BFF8EE611A116882EEA12AC1F3B0
:10235000080101EE901A1168F8EE611A40EE811A38
:1023600071EE800A62EE200AC1F3462101EE101AD6
:10237000B8EE411A31EE001AC0EE811ABCEEE11A35
:1023800080ED001A1168C1F3064101EE101AB8EE93
:10239000411A31EE001AC0EE811ABCEEE11A80ED4E
:1023A000011A1168C1F3066101EE101AB8EE411A64
:1023B00031EE000A80EE801ABCEEC10A80ED020AFE
:1023C00030BD04E001EE901ADFED092ABAE70021E2
:1023D000016041608160F3E7284402580000003941
:1023E000404402580024744A0090D0030024744CE6
:1023F000001BB74B2DE9FE4F0546DFF800A450F84F
:10240000081B0024FD4FC943019005F12800264612
:102410000AF1240A009008011DD4686E50B1B0F58D
:10242000801F0CD0B0F5001F0ED0B0F5401F1ED09D
:1024300001240FE0386840F40030386017E001985C
:10244000022101F0AFFF03E00098022102F03AF808
:1024500004000CD026462888C043C00523D4A86DAC
:1024600005281ED2DFE800F00C11161B1B006A6E57
:10247000DAF8001021F440111143CAF80010EAE71D
:10248000386840F40030386009E00198002101F01C
:1024900089FF03E00098002102F014F80446C4B15B
:1024A00000E0012426462888DFF85083C04308F165
:1024B0002C0840052FD4D5F8A400B0F5C00F28D0C3
:1024C00010DCB8B1B0F5001F19D0B0F5800F0FD1F6
:1024D0001AE0AA6DDAF8001021F007011143CAF8DA
:1024E0000010E0E7B0F5000F13D0B0F5200F10D0CA
:1024F00001240FE0386840F40030386009E00198AA
:10250000002101F04FFF03E00098002101F0DAFF05
:10251000044694B126462888C043000530D4D5F837
:10252000A800B0F1407F29D011DCC0B1B0F1807FAC
:102530001AD0B0F1007F10D11BE0D5F8A420D8F854
:10254000001021F460011143C8F80010E3E7B0F176
:10255000806F13D0B0F1A06F10D001240FE0386865
:1025600040F40030386009E00198002101F01AFFC2
:1025700003E00098002101F0A5FF044694B126462F
:102580002868DFF878B2C0430BF1200B80011FD41C
:10259000E86CD8B110280FD0202812D0302815D0E0
:1025A000012414E0D5F8A820D8F8001021F0E0614B
:1025B0001143C8F80010E3E7386840F40030386091
:1025C00004E00198022101F0EDFE044674B12646B4
:1025D0002888C043C0042BD4E86DB0F5005F20D03C
:1025E0000DDCA0B1B0F5805F0FD115E0EA6CDBF82F
:1025F000001021F030011143CBF80010E8E7B0F5EE
:10260000405F13D0B0F5804F10D001240FE0386840
:1026100040F40030386009E00198002101F0C2FE6A
:1026200003E00098002101F04DFF04468CB12646DE
:102630002888C043800429D4286EB0F5403F23D0B9
:1026400010DC08B3B0F5803F14D0B0F5003F0FD1D7
:1026500015E0EA6DDAF8001021F4E0411143CAF800
:102660000010E5E7B0F5802F0ED0B0F5A02F0BD00D
:1026700001240AE00198012101F094FE03E0009892
:10268000012101F01FFF044694B126462888C0436B
:1026900040042AD4D5F8AC00B0F1405F23D010DC60
:1026A00008B3B0F1805F14D0B0F1005F0FD115E036
:1026B0002A6EDAF8001021F4E0211143CAF8001064
:1026C000E4E7B0F1804F0ED0B0F1A04F0BD0012461
:1026D0000AE00198012101F065FE03E00098012164
:1026E00001F0F0FE044674B126462888C043000479
:1026F0001FD4E86ED8B1B0F1805F0ED0B0F1005FAA
:1027000010D0012414E0D5F8AC20D8F8001021F046
:10271000E0411143C8F80010E7E7386840F40030A2
:10272000386004E00198012101F03CFE044674B1D8
:1027300026462868C043C0011ED4A86CD0B1012829
:102740000ED0022811D0032814D0012413E0EA6E21
:10275000DAF8001021F040511143CAF80010E8E700
:10276000386840F40030386004E00198022101F03C
:1027700019FE04466CB126462868C043400255D471
:102780001F48016841F480710160FFF7F9FB814641
:102790000EE0AA6CDBF8001021F003011143CBF826
:1027A0000010E9E7FFF7ECFBA0EB090064283BD839
:1027B00013480068C005F5D5BCBBDFF84090B5F8FC
:1027C000B01009F14409D9F8000001F4407100F497
:1027D0004070884211D0D9F80010D9F8002021F4B7
:1027E000407142F48032C9F80020D9F8002022F468
:1027F0008032C9F80020C9F8001003E02C440258C8
:1028000000480258D5F8B000B0F5807F19D1FFF725
:10281000B7FB029011E000BFFFF7B2FB0299411A2B
:1028200041F28830814208D9032426462878DFF80F
:102830001494C043C00721D03CE0D9F800008007C1
:10284000EAD5D5F8B010C1F301200328FE480DD019
:10285000016821F47C510160B5F8B020D9F800106E
:10286000C2F30B021143C9F80010DFE7F74A03680F
:1028700002EA111223F47C511143ECE7A86F1828E7
:1028800016D005DCA0B1082808D0102804D10AE031
:1028900020280DD028280BD001240AE0019801211E
:1028A00001F080FD03E00098012101F00BFE0446D9
:1028B00064B126462878C04380071ED4686F062876
:1028C00019D2DFE800F0160C11161616AA6FD9F807
:1028D000001021F038011143C9F80010EAE701980F
:1028E000012101F05FFD03E00098012101F0EAFD04
:1028F00004467CB100E0012426462878C043400706
:102900001FD4D5F89000062819D2DFE800F0160C85
:10291000111616166A6FD9F8001021F0070111433D
:10292000C9F80010E9E70198012101F03BFD03E03F
:102930000098012101F0C6FD0446A4B100E0012485
:1029400026462878C04380062BD4D5F88C00B0F1F9
:10295000405F24D011DC10B3B0F1805F15D0B0F12E
:10296000005F10D116E0D5F89020D8F8001021F0C3
:1029700007011143C8F80010E3E7B0F1804F0ED013
:10298000B0F1A04F0BD001240AE00198002101F022
:1029900009FD03E00098022101F094FD044694B182
:1029A00026462878C04340062BD4D5F89800B0F5C9
:1029B000406F24D011DC10B3B0F5806F15D0B0F5A6
:1029C000006F10D116E0D5F88C20D9F8001021F056
:1029D000E0411143C9F80010E3E7B0F5805F0ED085
:1029E000B0F5A05F0BD001240AE00198002101F0AE
:1029F000D9FC03E00098022101F064FD044694B183
:102A000026462878C04300062BD4D5F89C00B0F5A4
:102A1000C04F24D011DC10B3B0F5005F15D0B0F575
:102A2000804F10D116E0D5F89820D8F8001021F486
:102A3000E0511143C8F80010E3E7B0F5004F0ED0A5
:102A4000B0F5204F0BD001240AE00198002101F0DD
:102A5000A9FC03E00098022101F034FD044654B1C2
:102A600026462878C04300071ED4D5F88000B0F56C
:102A7000805F0AD00FE0D5F89C20D8F8001021F430
:102A800060411143C8F80010EBE70098022101F003
:102A900019FD00B10126D5F88020D9F8001021F4E5
:102AA00040511143C9F800102878C043C00613D420
:102AB000D5F89400B0F5807F05D10098022101F08F
:102AC00001FD00B10126D5F89420D8F8001021F4BA
:102AD00040711143C8F800102868C043000316D4A1
:102AE000D5F8A00038B1B0F5803F09D0B0F5003F6F
:102AF0000BD001240AE00198002101F053FC03E00F
:102B00000098022101F0DEFC04468CB126462868BC
:102B1000C043400322D4D5F88400B0F5801F11D003
:102B2000B0F5001F13D0B0F5401F15D0012414E0FC
:102B3000D5F8A020D8F8001021F440311143C8F88E
:102B40000010E4E7386840F40030386004E0009892
:102B5000012101F0B7FC04465CB126462868C04359
:102B6000C0031CD4286D70B1B0F5803F10D0012493
:102B700014E0D5F88420D9F8001021F44011114355
:102B8000C9F80010EAE7386840F40030386004E023
:102B90000198022101F006FC0446DCB126462868B3
:102BA000C043800005D40098022101F08BFC00B1E5
:102BB00001262868C04380031BD4E86FB8B1B0F584
:102BC000807F10D0B0F5007F11D0B0F5407F0ED0DF
:102BD00001240DE02A6DDBF8001021F4803111434F
:102BE000CBF80010DBE7386840F4003038607CB385
:102BF00026462868C043C00207D42A6FDAF80010BE
:102C000021F000411143CAF800102868C043800237
:102C100007D4AA6EDAF8001021F080711143CAF8C7
:102C200000102868C043400009D40748016821F417
:102C3000004101600168D5F8B420114301602868A3
:102C4000C04306E05444025810440258CFFFFF002E
:102C50001DE007D46A6DDBF8001021F040511143EC
:102C6000CBF800102868C043000208D4D5F88820AB
:102C7000D9F8001021F440011143C9F80010287957
:102C80000024C04300F00100204309D00EE0EA6FA9
:102C9000D9F8001021F440711143C9F80010A8E7D9
:102CA0000198002101F07EFB00B106462879C0435F
:102CB00000F00200204305D10198012101F072FBD0
:102CC00000B106462879C04300F00400204305D136
:102CD0000198022101F066FB00B106462879C04345
:102CE00000F00800204305D10098002101F0EAFB24
:102CF00000B106462879C04300F01000204305D1FA
:102D00000098012101F0DEFB00B106462879C0439E
:102D100000F02000044304D10098022101F0D2FB0E
:102D200000B916B10120BDE8FE8F0020FBE70000CE
:102D30002DE9F05F04000F467ED0DFF83882D8F826
:102D4000000000F00F00B8420CD2D8F8001021F0BB
:102D50000F013943C8F80010D8F8000000F00F0048
:102D6000B84269D12078844D40070AD52069296886
:102D700001F07001884204D9296821F070010143F3
:102D8000296020787C4E361D00070AD560693168BD
:102D900001F07001884204D9316821F070010143CB
:102DA00031602078C0060AD5A069316801F4E0617D
:102DB000884204D9316821F4E06101433160207810
:102DC000DFF8B4B180060BF1080B0CD5E169584669
:102DD000DBF8002002F07002914204D9026822F070
:102DE00070020A430260207880070AD5E0682968EB
:102DF00001F00F01884204D9296821F00F01014335
:102E000029602078C0073ED05B49A268286818393D
:102E100020F47060104328606068022818D00328EE
:102E200019D00968012819D0490700294ADADFF8C2
:102E300048A1AAF1080A00E044E0DAF8002022F0F4
:102E400007020243CAF80020FFF79AF8814612E011
:102E500009688903E9E709688901E6E7C905E4E744
:102E6000FFF78EF8A0EB090141F28830814202D9C8
:102E70000320BDE8F09F6168DAF8000000F0380038
:102E8000B0EBC10FECD1207880070AD5E068296843
:102E900001F00F01884204D2296821F00F0101439B
:102EA0002960D8F80010404601F00F01B9420BD953
:102EB000016821F00F0139430160006800F00F0044
:102EC000B84201D00120D4E7207840070AD5206914
:102ED000296801F07001884204D2296821F070014C
:102EE00001432960207800070AD56069316801F044
:102EF0007001884204D2316821F0700101433160D1
:102F00002078C0060AD5A069316801F4E0618842E2
:102F100004D2316821F4E0610143316020788006F9
:102F20000CD5E1695846DBF8002002F070029142AE
:102F300004D2026822F070020A43026000F06CF8CA
:102F40000E492A682B68C2F3032203F00F038A5C40
:102F5000C95C02F01F0201F01F01D040084A20FAAC
:102F600001F111600749086007480068BDE8F05F9B
:102F7000FFF742B80020005218440258F8650008D4
:102F8000100000240C0000240400002430B500F0E0
:102F900043F80B4A0B490C4B15681468C5F3032220
:102FA00004F00F048A5C095D02F01F0201F01F01AA
:102FB000D040064A20FA01F119601060084630BD81
:102FC00018440258F8650008100000240C00002482
:102FD00000B5FFF7DBFF05490968054AC1F3021197
:102FE000515C01F01F01C84000BD00001C440258A4
:102FF000F865000800B5FFF7C9FF05490968054AEB
:10300000C1F30221515C01F01F01C84000BD000066
:103010001C440258F8650008454970B545480968E0
:10302000434B103B11F0380208D00111082A03D09D
:10303000102A0BD0182A0BD0084670BD19688906D3
:10304000FBD51968C1F3C101C84070BD3A4870BDD5
:103050003749374D18310C1D24350A680968266830
:103060002D6802F0030406F00102C1F30511C5F357
:10307000CC0515FB02F200EE102AB8EE400AE9B3C7
:103080002F4ADFED2E0AB7EE001A6CB1DFED2D1AD4
:10309000012C01D0022C43D002EE101A1068F8EE79
:1030A000422A81EEA22A1EE01C68A40611D51B68E4
:1030B00001EE901A1168C3F3C103F8EE612AD840FB
:1030C00001EE900AC1F30800F8EE611A81EEA22A1F
:1030D0000BE001EE901ADFED1C2A00BFF8EE611A3A
:1030E000106882EEA12AC0F3080001EE900AF8EE03
:1030F000611A40EE201A31EE810A00E015E022EE5E
:10310000000A1068C0F34620401C00EE900AF8EE5A
:10311000600A80EE201ABCEEC10A10EE100A70BDE3
:1031200001EE901ADFED092AD8E7002070BD0000FB
:10313000104402580090D00300366E0100000039A0
:10314000304402580024744A0024744C001BB74BCE
:103150002DE9F05F04007DD0FF4F2078FE4D183739
:10316000DFF8F483103DC00748D0D8F80000396874
:1031700000F03800102815D0182803D101F0030002
:1031800002280FD06068B0F5803F12D010B1B0F5C2
:10319000A02F18D0286820F480302860286820F4F8
:1031A000802009E02868800328D560680028D2D0F4
:1031B00024E0286840F480302860606888B1FEF719
:1031C000DFFE064609E0286840F480202860F0E72A
:1031D000FEF7D6FE801B64287ED828688003F7D5CA
:1031E0000CE0FEF7CDFE064605E000BFFEF7C8FE88
:1031F000801B6428F0D828688003F7D420788007E3
:1032000056D5D8F80000DFF85093396810F0380030
:10321000A9F10C090ED0182801D188070AD0E0685E
:10322000A8B3296821F0190101432960FEF7A8FE1F
:10323000064628E02868400702D5E06800288AD0C2
:10324000E168286820F0190008432860FEF798FE1E
:10325000064606E0D2E000BFFEF792FE801B022881
:10326000BAD828684007F7D5217CD9F8002022F089
:10327000FE4242EA0161C9F8001019E0FEF780FE43
:10328000801B0228A8D828684007F7D5ECE7FFE79D
:10329000286820F001002860FEF772FE064604E070
:1032A000FEF76EFE801B022896D828684007F7D4E8
:1032B0002078C00646D5D8F80000DFF89C9239681F
:1032C00000F03800A9F10409082812D0182805D107
:1032D00001F00300012800E0CEE00AD0E0690028F8
:1032E000286820D040F080002860FEF749FE06469E
:1032F00015E02868C00502D5E06980287ED194F8E1
:103300002010D9F8002022F07C5242EA0161C9F86D
:10331000001017E0FEF734FE801B0228A0D82868B2
:10332000C005F7D5EBE720F080002860FEF728FE07
:10333000064604E0FEF724FE801B022890D8286889
:10334000C005F7D42078000729D583486169643027
:1033500000298146016811D041F001010160FEF7AA
:103360000FFE064605E000BFFEF70AFE801B02289E
:1033700088D8D9F800008007F6D510E021F00101C7
:103380000160FEF7FDFD064605E000BFFEF7F8FD13
:10339000801B022870D8D9F800008007F6D4207866
:1033A000800623D5A0690028286810D040F48050FA
:1033B0002860FEF7E5FD064605E000BFFEF7E0FDEC
:1033C000801B022858D828688004F7D50EE020F426
:1033D00080502860FEF7D4FD064604E0FEF7D0FDDD
:1033E000801B022848D828688004F7D4207840073A
:1033F00051D5DFF86891D9F8001000E015E141F4EB
:103400008071C9F80010FEF7BBFD064605E000BF5D
:10341000FEF7B6FD801B64282ED8D9F80000C00541
:10342000F6D54D4EA068603601280AD008B10528AF
:1034300013D0306820F001003060306820F00400C4
:1034400002E0306840F001003060A06841F2883A44
:1034500098B1FEF795FD81460AE0306840F004001F
:103460003060EEE7FEF78CFDA0EB0901514503D873
:1034700030688007F6D50EE072E0FEF781FD8146E8
:1034800006E000BFFEF77CFDA0EB0901514567D8BF
:1034900030688007F6D4606A00287CD0DFF8B8A0D6
:1034A000D8F800100AF1200A4FF6F87B0AF1040858
:1034B000C1F3C2010329AAF104096DD002282868CA
:1034C00020F08070286003D0FEF75AFD044681E0AA
:1034D000FEF756FD064604E0FEF752FD801B02286B
:1034E00075D828688001F7D4E26A40F2F331386871
:1034F00054F8283F884340EA021018433860217B83
:103500004FF4FE0C22894FF0FE47208A4902267DA7
:10351000521E401EA1F5007189B2C2F30802114388
:10352000761E0CEA00400143484607EA0662114352
:10353000CAF80010D9F8001021F00101C9F80010F4
:10354000D8F80030266A23EA0B0343EAC601C8F81C
:103550000010D9F8001004E0104402580048025846
:1035600035E0A26921F00C011143C9F8001001688F
:10357000E26921F0020111430160016841F48031E8
:103580000160016841F400310160016841F480216B
:103590000160016801E06CE020E041F001010160A0
:1035A000286840F080702860FEF7EAFC044604E0DA
:1035B000FEF7E6FC001B022809D828688001F7D531
:1035C00057E000BFFEF7DCFC001B022802D90320F5
:1035D000BDE8F09F28688001F4D44AE039680128EA
:1035E000DAF8000021D0A26A01F0030393421CD153
:1035F000E26AC1F305118A4217D1216BC0F30802B8
:10360000491E8A4211D1616BC0F34622491E914284
:103610000BD1A16BC0F30642491E914205D1E16B6B
:10362000C0F30660491E814201D00120D0E7A16CA1
:103630004646D8F80000C0F3CC00814219D0D9F832
:1036400000004D4620F00100C9F80000FEF798FC8C
:103650004FEA0007FEF794FCB842FBD0A26C30683A
:1036600020EA0B0040EAC2003060286840F0010008
:1036700028600020ACE7401EB0F1807F10B501D378
:10368000012010BD4FF0E02460610F21601701F0B0
:103690006FFC0020A0610721216110BD70477047B9
:1036A00070470000F0B590F83C20012A41D0224E2E
:1036B000012480F83C40022280F83D2002681F4D22
:1036C0005368B242D2F808C001D0AA4203D14F6871
:1036D00023F470033B430F6823F070031F435760CC
:1036E0000268B24219D0B2F1804F16D0144B9A4200
:1036F00013D0144B9A4210D0134B9A420DD0AA42C9
:103700000BD0124B9A4208D0114B9A4205D0114B64
:103710009A4202D0104B9A4204D189682CF080035F
:1037200019439160002180F83D4080F83C10084624
:10373000F0BD0220F0BD0000000001400004014087
:103740000004004000080040000C00400018004049
:103750000040014000E0004000E4004010B50400DB
:1037600003D094F83D0010B107E0012010BD002007
:1037700084F83C00204600F023F8022084F83D0045
:103780002068211D00F0EAFF012084F8480084F839
:103790003E0084F83F0084F8400084F8410084F83B
:1037A000420084F8430084F8440084F8450084F81B
:1037B000460084F8470084F83D00002010BD00005A
:1037C00008B5154A0168154891420ED1016841F0CB
:1037D0000201016000680022114600F00200009022
:1037E0001D20FEF755FC1D2010E00D4A914211D11D
:1037F000016841F00401016000680022114600F0F8
:10380000040000901E20FEF743FC1E20BDE8084087
:10381000FEF731BC08BD000000040040E844025837
:103820000008004090F83D10012901D001207047A8
:103830001A4A022180F83D100168CB6843F0010369
:10384000CB60006890421AD0B0F1804F17D0144975
:10385000884214D01349884211D0134988420ED0AF
:10386000124988420BD01249884208D01149884237
:1038700005D01149884202D01049884207D1816899
:103880000F4A1140062906D0B1F5803F03D00168E8
:1038900041F001010160002070470000000001407C
:1038A0000004004000080040000C004000040140FB
:1038B000001800400040014000E0004000E40040EB
:1038C0000700010070B5044690F83C00002501286F
:1038D00014D03A4B012684F83C60022084F83D0065
:1038E00022689068184020F47F4090600868702833
:1038F0002FD010DC10F00F0F03D022E04FF00200A9
:1039000070BD4FEA2012072A1BD2DFE802F05353A2
:1039100053534B394100B0F1101F4BD009DCB0F5C7
:10392000805F0FD0B0F5005F1ED0B0F5801F08D1CA
:1039300040E0A0F5801120393CD010293AD0202950
:1039400038D0012584F83D60002084F83C002846EA
:1039500070BD4A682068D1E9021300F071FF206849
:10396000816841F0770109E04A682068D1E90213D3
:1039700000F066FF2068816841F480418160E1E7E2
:10398000CA684968206800F06FFF2068502106E08F
:10399000CA684968206800F078FF2068602100F05C
:1039A00059FFCFE7CA684968206800F05DFF2068CA
:1039B0004021F4E7226801461046F0E788FFCEFF79
:1039C00070472DE9F041044600680027C668056984
:1039D000A90713D5B10711D5FA1E0261012121777C
:1039E000206880698007204602D0FFF7E9FF04E0E5
:1039F00000F08BF8204600F089F82777680716D585
:103A0000700714D5226802206FF00401116120773D
:103A10002068806910F4407F204602D0FFF7D0FF75
:103A200004E000F072F8204600F070F827772807CD
:103A300015D5300713D5226804206FF008011161F5
:103A400020772068C0698007204602D0FFF7B8FFC2
:103A500004E000F05AF8204600F058F82777E8060E
:103A600016D5F00614D5226808206FF010011161F8
:103A700020772068C06910F4407F204602D0FFF70D
:103A80009FFF04E000F041F8204600F03FF8277760
:103A9000E80708D0F00706D021686FF00100086140
:103AA000204600F035F8280601D4A80408D53006D1
:103AB00006D521686FF4025008612046FFF7EFFD3C
:103AC000E80508D5300606D521686FF480700861D6
:103AD0002046FFF7E3FD680608D5700606D5216885
:103AE0006FF040000861204600F02CF8A8060AD5C7
:103AF000B00608D521686FF0200008612046BDE8B7
:103B0000F041FFF7CDBDBDE8F08170477047000080
:103B100010B50068084988420DD1084802F034FB0E
:103B2000064890F85800002805D1BDE81040034928
:103B3000034801F041BF10BD00040040E40100242F
:103B400018000024704730B590F88410012918D06F
:103B5000012280F884202421C0F88810002220242B
:103B600001680B680D6823F0005325F001050D6016
:103B7000426601680B60C0F8884080F884201046D7
:103B800030BD022030BD7047704770B5044690F8D4
:103B9000840001281DD0012284F884202420C4F848
:103BA000880020680568026822F00102026020682F
:103BB000826822F060620A438260204600F078FE4C
:103BC0002268202100201560C4F8881084F8840041
:103BD00070BD022070BD70B5044690F884000128C5
:103BE0001DD0012284F884202420C4F88800206895
:103BF0000568026822F0010202602068826822F0F3
:103C000060420A438260204600F052FE2268202172
:103C100000201560C4F8881084F8840070BD02206C
:103C200070BD7047704770472DE9F0410768002567
:103C3000044640F60F030226F8693968BA6818424C
:103C40000AD183067ED501F0200302F0805C53EA9E
:103C50000C0377D0616F74E1CF4BDFF840C31340A2
:103C600001EA0C0C53EA0C0C6CD05FEAC07C0CD05F
:103C70005FEAC15C09D54FF0010CC7F820C0D4F849
:103C8000907047F00107C4F89070870709D5D707EF
:103C900007D027683E62D4F8906046F00406C4F866
:103CA000906046070AD5D60708D0276804263E62EA
:103CB000D4F8906046F00206C4F8906006070CD570
:103CC00001F020061E4308D0266808233362D4F88A
:103CD000903043F00803C4F8903003050BD54B0136
:103CE00009D526684FF400633362D4F8903043F06E
:103CF0002003C4F89030D4F89030002B3DD08006DB
:103D000009D501F0200002F08051084303D0616F13
:103D100009B1204688472168D4F89000896849068F
:103D200002D410F0280F2AD0204600F0A7FE206809
:103D3000806840061ED52068083050E8001F21F03A
:103D4000400100E021E040E80012002AF3D1D4F85D
:103D5000800078B192490165D4F88000FDF776F8CB
:103D600000280AD0D4F88000016D00E02046BDE8AC
:103D7000F04108472046FFF756FFBDE8F081204696
:103D8000FFF751FFC4F89050F7E7D4F86CC0202338
:103D9000BCF1010F7ED15FEAC06C7BD55FEAC16CDC
:103DA00078D51020386220688068400673D5D4F832
:103DB00080107C4A0868904234D07A4A1832904287
:103DC00030D0784A303290422CD0764A48329042F5
:103DD00028D0744A6032904224D0724A783290429D
:103DE00020D0704A903290421CD06E4AA832904245
:103DF00018D06D4A904215D06B4A1832904211D0BB
:103E0000694A303290420DD0674A4832904209D018
:103E1000654A6032904205D0634A7832904201D0C0
:103E2000614A903240680004000CA6D0B4F85C20CF
:103E30008242A2D9A4F85E00C869B0F5807F2FD075
:103E4000216851E8000F20F4807041E80002002A48
:103E5000F6D12068083050E8001F21F0010140E849
:103E60000012002AF5D12068083050E8001F21F028
:103E7000400140E80012002AF5D1C4F88C30E56614
:103E8000216851E8000F20F0100041E80002002AEC
:103E9000F6D101E040E00BE0D4F88000FCF726FE0C
:103EA0002667B4F85C00B4F85E10401A81B22FE0C7
:103EB000B4F85C00B4F85E10B4F85E20401A81B229
:103EC000002AB2D00029B0D0226852E8000F20F4B6
:103ED000907042E80007002FF6D1344F206800F1BF
:103EE000080050E8002F02EA070240E8002CBCF16D
:103EF000000FF3D1C4F88C30E5666567206850E8A0
:103F0000002F22F0100240E80023002BF6D1266794
:103F10002046FFF738FE30E7C60209D5560207D51E
:103F20004FF4801038622046BDE8F041FFF77ABEBA
:103F300006060AD501F0800602F40002164304D0FA
:103F4000A16F00297FF412AF17E7420611D54A0688
:103F50000FD52046026852E8001F21F0400142E8D8
:103F60000014002CF6D1C0F88830856700F0FAF80C
:103F700003E7020206D54A0004D52046BDE8F04119
:103F8000FFF74FBEC001C6D50029C4DA2046BDE800
:103F9000F041FFF7F9BD000001000010200100040E
:103FA000674A00081000024010040240FEFFFFEFC5
:103FB00010B5040003D0D4F8880010B107E0012048
:103FC00010BD002084F88400204600F027F824204B
:103FD000C4F888002068016821F001010160A06A2E
:103FE00010B1204600F086FC204600F071FD01284B
:103FF000E6D02068416821F49041416020688168E2
:1040000021F02A0181602068016841F0010101600E
:104010002046BDE8104000F0D1BC000010B5B4B09F
:10402000044614212EA8FCF7B7F9B8216846FCF71E
:10403000B3F91D492068884233D100201E90012128
:104040000446CDE900106846FEF7D4F908B1FCF744
:104050001EFC1648016841F010010160006800F084
:104060001000339011481038016841F001010160DF
:1040700000682EAB022100F0010033904FF4C060C5
:10408000072283E813000A482EA9CDE93142FDF743
:1040900063FE002225201146FDF7FAFF2520FDF7DB
:1040A000EAFF34B010BD000000100140F044025897
:1040B000000002582DE9F8430446D0F888009846DD
:1040C00016460D46202802D00220BDE8F883A5B18F
:1040D0009EB10021C4F890102120C4F88800183443
:1040E000FDF74EFF814654F8100CA687E68720277F
:1040F000183CB0F5805F02D003E00120E5E72069BD
:1041000010B12E46002510E000260EE0802120464A
:1041100000F0CCFEC0B9DEB116F8010B2168886250
:10412000B4F85600401EA4F85600B4F856004B46AA
:104130004FF00002CDF800800028E7D14FF0400199
:10414000204600F0B3FE48B1C4F888700320BCE7F5
:1041500035F8020B2168C0F30800E0E7C4F8887066
:104160000020B2E77047FEE71D4800232DE9F0412B
:10417000DFF868C04FF44077C0F800C00124C0E900
:10418000027300F114080474437414264FF03B0CBE
:10419000847488E8501000F12408066202250D2777
:1041A000042188E8B0000A220563C0E90D31C0E9A6
:1041B0000F12C0E91112C0E91315C0E91512C2654A
:1041C0000266C0E91931FDF709FB002803D0BDE8FC
:1041D000F041FCF75CBBBDE8F081000000A00040AE
:1041E0001800002430B587B014216846FCF7D4F8D5
:1041F0001A48016841F004010160016801F00401FE
:104200000591016841F080010160016801F08001C1
:104210000591016841F001010160016801F00101AF
:104220000591016841F00801016000684FF4804485
:104230000B4D002200F00800214605902846FDF7AE
:1042400099FE002100940120CDE901012846039147
:104250006946FDF781FD07B030BD0000E04402581B
:104260000008025810B588B0174800241549EF22FD
:1042700040F2E7330094019402940394049405946B
:10428000069480E81600C0E903348461FFF766FAFB
:1042900008B1FCF7FCFA4FF4805000900A486946D8
:1042A000FFF710FB08B1FCF7F2FA074804A90494E1
:1042B0000694FFF7F7F9002801D0FCF7E8FA08B0F8
:1042C00010BD000000040040B800002410B588B004
:1042D000174800241549EF2240F2E7330094019477
:1042E0000294039404940594069480E81600C0E9AF
:1042F00003348461FFF732FA08B1FCF7C8FA4FF4CF
:10430000805000900A486946FFF7DCFA08B1FCF7D4
:10431000BEFA074804A904940694FFF7C3F90028DD
:1043200001D0FCF7B4FA08B010BD0000000800404E
:10433000040100241848002110B5164C0C224FF43B
:1043400061230460C0E90131C160C0E904128161E8
:10435000C161016241628162FFF72AFE08B1FCF788
:1043600096FA0D480021FFF736FC08B1FCF78FFAEA
:1043700009480021FFF709FC08B1FCF788FA064854
:10438000FFF7E1FB002803D0BDE81040FCF77FBA3F
:1043900010BD00000010014050010024FEE7FEE7C0
:1043A000704700002DE9F047454D044689464FF01F
:1043B000000A2868C04380070AD0414E283E306872
:1043C00020F080603060FDF7DBFD0746B04608E076
:1043D0000120BDE8F08700BFFDF7D2FDC01B022819
:1043E00067D8D8F800000001F6D4206829684FF497
:1043F000FE0721F47C313E0241EA00302860207A39
:10440000A389B4F804C040022D4D2D495B1E227CC7
:10441000ACF1010C1035091DA0F5007080B2521EE0
:10442000CCF3080C07EA034340EA0C00184306EA01
:104430000262104328600868626920F0C0001043DF
:1044400008600A68A06922F0200202430A60281D61
:104450000A6822F010020A6002684FF6F873E469F5
:104460009A4342EAC40202600868B9F1000F40F0C2
:1044700010020A6011D00868B9F1010F11D040F4A0
:1044800000100860D8F80000444640F08060C8F88A
:104490000000FDF775FD05460DE0086840F40020BA
:1044A000EFE740F48010ECE7FDF76AFD401B0228BF
:1044B00001D903208DE720680001F5D5504688E733
:1044C000284402582DE9F047454D044689464FF0EF
:1044D000000A2868C04380070AD0414E283E306851
:1044E00020F080503060FDF74BFD0746B04608E0F5
:1044F0000120BDE8F08700BFFDF742FDC01B022888
:1045000067D8D8F800008000F6D4208829684FF4D6
:10451000FE0721F07C713E0241EA00502860207ABB
:10452000A389B4F804C040022D4D2D495B1E227CA6
:10453000ACF1010C1835091DA0F5007080B2521EB7
:10454000CCF3080C07EA034340EA0C00184306EAE0
:104550000262104328600868626920F440601043DA
:1045600008600A68A06922F4007202430A60281DEC
:104570000A6822F480720A6002684FF6F873E469F0
:104580009A4342EAC40202600868B9F1000F40F49D
:1045900080720A6011D00868B9F1010F11D040F0A3
:1045A00080700860D8F80000444640F08050C8F899
:1045B0000000FDF7E5FC05460DE0086840F48000CA
:1045C000EFE740F40000ECE7FDF7DAFC401B0228BF
:1045D00001D903208DE720688000F5D5504688E793
:1045E000284402587047FDF7D1BC000070B59CB05C
:1045F0004C216846FBF7D0FE202113A8FBF7CCFE28
:104600000220FDF777FD1E48016821F4404101605A
:104610000168002401F440411B9101688904FCD524
:1046200002200A9028230990C20301210D9106253A
:10463000CDE90012CDE90B030C261294CDE90E5002
:10464000CDE910646846FEF783FD08B172B6FEE757
:1046500040201A9008230501CDE9163013ABCDE9AF
:1046600018053F21032283E8160013A81146FEF720
:104670005FFB002801D072B6FEE71CB070BD0000E1
:10468000184802582748F0B5274A016841F47001DC
:104690000160106800F00F00072804D2106820F0B5
:1046A0000F00C01D106021490020204C10340B6801
:1046B0001F4D43F001030B6020600B682B400B6023
:1046C000136803F00F03072B04D9136823F00F03BB
:1046D000DB1D1360154C174A1834174B261D371D68
:1046E0002060124C154D28343060261D3860371D6F
:1046F00023603B1D35601C1D3A60251D2E1D186072
:10470000331D22602860326018600A6843F2D204C8
:10471000064B0B4D22F4802260330A6018602C6037
:10472000F0BD000088ED00E0002000520044025877
:104730007FEDF6EA80020101000202020000FF01A3
:10474000004000520148FFF73CB90000B8000024C7
:104750000148FFF736B90000040100242DE9F047B5
:104760002D4B4FF0804A2D4D026898422C4E2D4F14
:104770002D4C09D0504507D0A84205D0B04203D0F7
:10478000B84201D0A04205D1D1F804C022F0700295
:104790004CEA0202DFF894C0DFF894809842DFF818
:1047A000949015D0504513D0A84211D0B0420FD0EC
:1047B000B8420DD0A0420BD0604509D0404507D08B
:1047C000484505D01C4DA84202D01C4DA84203D13B
:1047D000CD6822F440722A434D6922F080022A43B8
:1047E000026098428A68C2620A68826207D0A04268
:1047F00005D0604503D0404501D0484501D1096945
:104800000163012141610169C90703D0016921F0F8
:1048100001010161BDE8F087000001400004004093
:1048200000080040000C004000040140004001402E
:10483000004401400048014000E0004000E4004026
:1048400042EA032283680A4323F47F410A438260D9
:1048500070470000034B82681A400A4342F0070188
:10486000816070478FFFCFFF10B5036A046A23F0A1
:104870000A0324F00104046284690B4324F0F0016C
:1048800041EA02118161036210BD10B5036A046A36
:1048900023F0A00324F010040462846943EA0111A8
:1048A00024F4704343EA02328261016210BD0000C9
:1048B00030B5416EB9B101680D4B03F108048A6847
:1048C0008968C2F34262490F5D5C615C2D01B5FBF2
:1048D000F1F1A0F86A10995CA25C0901B1FBF2F158
:1048E000A0F8681030BD0121A0F86A10F8E70000B8
:1048F000E865000890F82810090706D50168836B61
:104900004A6822F400421A434A6090F82810C90706
:1049100006D00168C36A4A6822F400321A434A602A
:1049200090F82810890706D50168036B4A6822F4BD
:1049300080321A434A6090F82810490706D501686A
:10494000436B4A6822F480221A434A6090F8281088
:10495000C90606D50168C36B8A6822F480521A43DF
:104960008A6090F82810890606D50168036C8A6869
:1049700022F400521A438A6090F82810490611D593
:104980000168436C4A6822F480121A434A60416C01
:10499000B1F5801F06D10168836C4A6822F4C00219
:1049A0001A434A6090F82810090606D50168C26CBF
:1049B000486820F400201043486070472DE9F84310
:1049C00000250446C0F89050FDF7DAFA80462068CA
:1049D00020266FF07E470068000713D5002243466B
:1049E00031042046009700F061FA58B1216851E87F
:1049F000000F20F0800041E80002002AF6D1C4F840
:104A0000886021E020680068400722D500224346E4
:104A10004FF480012046009700F048FAC8B12068A2
:104A200050E8001F21F4907140E80012002AF6D1EE
:104A30002068083050E8001F21F0010140E8001212
:104A4000002AF5D1C4F88C60032084F88450BDE8B6
:104A5000F883C4F88860C4F88C60E5662567002098
:104A600084F88450F3E710B5806B0021A0F85E1045
:104A7000A0F85610FFF7D7F810BD000010B5026877
:104A800052E8001F21F4907142E80013002BF6D188
:104A90000E4B0268083252E8001F194042E8001429
:104AA000002CF6D1C16E012908D1026852E8001F1E
:104AB00021F0100142E80013002BF6D10021202242
:104AC000C0F88C20C166416710BD0000FEFFFFEFFB
:104AD0002DE9F04304468068E24E87B0E24B21683E
:104AE000D4E90427D4F81CC010430A68002547EA1B
:104AF0000C073843324002430A602068E26841688C
:104B000021F44051114341602268A1699A4201D0C9
:104B1000206A01439668DFF854C3D54FD54806EAAA
:104B20000C060E4396602168666ACA6A22F00F027C
:104B30003243CA622268BA420ED1006800F03800DF
:104B400018286FD07ADCB8B308286CD010286BD145
:104B50008BE0282868D18EE0C7498A4209D10068D5
:104B600000F0070006285FD2DFE800F0507D7F816B
:104B70008385C2498A4209D1006800F007000628EF
:104B80007BD2DFE800F0437072747678BC498A42C9
:104B900009D1006800F0070006286ED2DFE800F0B7
:104BA00036636567696BB7498A420BD1006800F0CC
:104BB0000700062861D200E043E0DFE800F0275458
:104BC00056585A5CB0498A4206D1006800F0380055
:104BD00018284CD0B7DD31E0AC498A4209D10068D1
:104BE00000F00700062848D2DFE800F0103D3F4102
:104BF0004345A7498A420BD1006800F00700062808
:104C00003BD2DFE800F0033032343638002035E0A4
:104C1000A0498A4209D1006800F03800182826D03F
:104C200091DD0BE023E01EE027E09B498A420AD198
:104C3000006800F03800182819D084DD202888D1B9
:104C40001CE001201AE09A4217D18A48001D006832
:104C500000F00700062810D2DFE800F0030507097E
:104C60000B0D02200AE0042008E0082006E01020D6
:104C700004E0202002E0402000E080208749DFF8A7
:104C800020829A42874A4FF400434FEA21174FF09F
:104C900000064ED110281AD006DC022809D00428BC
:104CA0000BD008287ED10DE020283ED0402879D1B5
:104CB0003DE0FDF749FA014610E06846FDF756FA77
:104CC00001990BE003A8FDF7F3FA049906E01068D8
:104CD000800605D51068C0F3C100C140002970D01E
:104CE000606A676838F8102007EB4703B1FBF2F001
:104CF000834257D8B0EB073F54D8002308461946E3
:104D0000FBF700FB02467808130E120243EA01216A
:104D100010183A4671410023FBF7F4FA624AA0F5F5
:104D2000407191423ED821688FE03946D8E7194654
:104D3000D6E7D4F81CC04FF6EF799C4546D1082839
:104D400019D005DC58B101280CD0042875D10DE02C
:104D5000102815D0202835D040286ED134E0FEF739
:104D600037F901E0FEF746F9014610E06846FDF725
:104D7000FDF901990BE003A8FDF79AFA049906E002
:104D80001068800604D51068C0F3C100C140C1B1ED
:104D9000636A606838F81330B1FBF3F1490001EB46
:104DA000500100E049E0B1FBF0F0A0F110014945ED
:104DB00043D84FF6F0732168C0F342021840104305
:104DC00043E043E03946E3E71946E1E7082819D014
:104DD00005DC58B101280CD004282ED10DE0102894
:104DE00015D020282BD0402827D12AE0FEF7F0F854
:104DF00001E0FEF7FFF8014610E06846FDF7B6F95E
:104E000001990BE003A8FDF753FA049906E0106836
:104E1000800604D51068C0F3C100C140B1B1636A17
:104E2000606838F81330B1FBF3F101EB5001B1FBCE
:104E3000F0F0A0F11001494505D9012506E03946F9
:104E4000EDE71946EBE7216880B2C8600120A4F8BD
:104E50006A00A4F8680028466667A66707B0BDE840
:104E6000F0830000F369FFCF000C0058FFF4FF113E
:104E700000100140544402580044004000480040E3
:104E8000004C0040005000400014014000780040F9
:104E9000007C004000180140001C01400090D0033D
:104EA000D065000800440258FFFC0F002DE9F047D0
:104EB000994617460D460446089E4FF0000833E019
:104EC000701C31D0FDF75CF8A0EB0900B04218D897
:104ED000BEB120680168490726D5802D24D0402D19
:104EE00022D0C169C94309070DD4082505622046AF
:104EF000FFF7C4FDC4F89050012084F88480BDE819
:104F0000F0870320FBE7C069C04300050CD421688B
:104F10004FF4006008622046FFF7B0FD2021C4F87E
:104F2000901084F88480ECE72068C06935EA0000BE
:104F300004D00020B842C3D00020E0E70120F9E708
:104F40000148FEF771BE000050010024FEE700009A
:104F50000FB4054B10B503A9044A029800F0EAF813
:104F600010BC5DF814FB0000BD5C000814000024B8
:104F7000090700284FEA116104DB00F1E02080F806
:104F80000014704700F00F0000F1E02080F8141DBD
:104F9000704702E008C8121F08C1002AFAD1704702
:104FA0007047002001E001C1121F002AFBD17047A9
:104FB0002DE9FF5F82B00021DDE90430020DDDF84C
:104FC00040B0034318D044F61050A2F2FF324243DF
:104FD0001514119801281FD0A5EB0B00401C5FEAA7
:104FE000000A4FF000064E4FDFF83891B0465046A9
:104FF00015D5CAF1000413E0119801244AA3012831
:1050000001D16FEA0B010298119AC0E90031C0E9A1
:10501000024206B0BDE8F09FCBF10000DFE7044696
:105020000021404A491842EB0450CDE9001012E03B
:10503000E00707D032463B4640464946FBF793FA25
:105040008046894632463B4610461946FBF78BFAA6
:1050500006460F466410002CEAD1DDE90401DDE9C3
:105060000023BAF1000F06DAFBF77DFA42464B4601
:10507000FBF779FA05E0FBF7E8FA42464B46FBF707
:10508000E4FA04460E460022284BFBF765FB03D8E2
:105090004FF0FF30014607E00022254B2046314605
:1050A000FBF7BAF9FBF740FB102409E0002C0ADB00
:1050B0000A220023FBF726F9039B30321A55641E9F
:1050C00050EA0102F2D1641C039AC4F111031444A2
:1050D000119A012A03D0012208430DD10AE00843A6
:1050E00004D000204FF0110B119072E7A3EB0B05D9
:1050F0006D1E0DE05B4504DD4FF0000205F101057A
:1051000004E003DA4FF00002A5F10105002AECD01B
:1051100002981199C0E90231C0E9004579E7000021
:10512000000014400000F03F300000000000F04399
:105130000000E03F2DE9FF4F95B09B4689460646AB
:1051400000250FE2252877D100242746F84A0121BF
:10515000059400E0044316F8013F203B01FA03F0F8
:105160001042F7D130782A2811D06FF02F03307811
:10517000A0F13002092A16D8059A44F0020402EB85
:10518000820203EB42021044761C0590EFE759F8C7
:10519000042B0592002A03DA504244F4005405908F
:1051A00044F00204761C30782E2816D116F8010F30
:1051B00044F004042A280DD06FF02F023078A0F1BB
:1051C0003003092B09D807EB870302EB4303C71809
:1051D000761CF3E759F8047B761C30786C280FD0E6
:1051E00006DC4C2817D068280DD06A2814D104E0BA
:1051F000742810D07A280FD10DE044F400140AE08E
:1052000044F4801401E044F440147278824202D1E4
:1052100004F58014761C761C307866280BD013DCDD
:10522000582877D009DC002875D04528F6D04628C4
:10523000F4D047281AD19DE118E0632835D06428BE
:1052400079D0652812D195E1702873D008DC6728E1
:10525000F1D069286FD06E280DD06F2806D1B5E047
:1052600073282CD0752875D0782874D05A46179991
:1052700090476D1C75E1C4F30250022809D0032841
:105280000DD0D9F8001004280DD00D6009F10409E3
:1052900067E1D9F80010EA17C1E90052F6E7D9F83A
:1052A00000100D80F2E70D70F0E719F8041B8DF87F
:1052B000001000208DF80100EA46012003E059F8B3
:1052C00004AB4FF0FF3061074FF0000102D40DE056
:1052D00008F101018846B9420FDA8045F8DB1AF877
:1052E00008100029F4D108E008F101018846814244
:1052F000FADB1AF808100029F6D105985B46A0EBF6
:10530000080721463846179A00F094FA284400EB23
:10531000080507E04DE029E10DE01AF8010B5A46B7
:1053200017999047B8F10108F7D25B4621463846F5
:10533000179A13E142E00A220092C4F302524FF09E
:10534000000A022A08D059F804CB032A4FEAEC716C
:105350000AD00DE029E02AE009F1070121F0070257
:10536000F2E802C1914609E00FFA8CFC4FEAEC71B9
:10537000042A03D14FFA8CFC4FEAEC71002907DABA
:105380000A460021DCF1000C61EB02012D2202E053
:10539000220504D52B228DF80420012203E0E20728
:1053A00001D02022F7E7904659E00A2102E01022BE
:1053B0000DE010214FF0000A00910BE010224FF099
:1053C000000A44F004040827009203E008224FF08A
:1053D000000A0092C4F30252022A05D059F804CB05
:1053E0000021032A08D009E009F1070121F0070292
:1053F000F2E802C1914605E01FFA8CFC042A01D1B3
:105400000CF0FF0C4FF00008220728D5702806D0BA
:10541000009B83F0100353EA0A0305D00EE04022FC
:105420008DF80420012208E05CEA010206D0302257
:105430008DF804208DF8050002229046009B83F031
:10544000080353EA0A030AD15CEA010201D16207A8
:1054500005D530228DF804204FF001087F1E582812
:1054600004D034A003900EA802900DE036A0F9E716
:1054700053466046009AFAF745FF84460398825CDB
:105480000298401E029002705CEA0100F0D102987E
:1054900006A9081A00F1200A600702D524F4803416
:1054A00000E00127574502DDA7EB0A0000E00020DD
:1054B00000EB0A01009005984144401A0590E00372
:1054C00006D45B462146179A059800F0B3F90544C7
:1054D000002706E001A85A46C05D179990476D1C49
:1054E0007F1C4745F6DBE0030CD55B462146179A47
:1054F000059800F09FF9054404E030205A461799BA
:1055000090476D1C0099481E00900029F5DC08E0CA
:10551000029802995A460078491C029117999047BF
:105520006D1CBAF10001AAF1010AF1DC65E100008D
:105530000928010030313233343536373839616269
:10554000636465660000000030313233343536372D
:1055500038394142434445460000000000F058F904
:105560000544761C307800287FF4ECAD19B028464D
:10557000BDE8F08F620700D4062709F1070222F088
:10558000070CFCE80223E14603F000485FEA080C40
:1055900002D00FF2702C0DE05FEA045C02D50FF22E
:1055A000682C07E05FEAC47C02D00FF2602C01E0B7
:1055B000AFF2700C4FF0FF3823F00043CDF850C02D
:1055C00065280CD006DC452809D046281DD0472880
:1055D0003DD13DE0662818D067287ED138E0002113
:1055E000112F01DB112000E0781CCDE9000106A994
:1055F0000EA8FFF7DDFCDDE90F010E9A03910021F3
:10560000009207F1010A04914DE04FF0004000972D
:10561000CDE9011006A90EA8FFF7CAFCDDE90F02CB
:1056200003920E9B11990022DDF80CA000930492C6
:1056300011B9791C00EB010AB7EB0A0004D4C0F1E0
:10564000FF3007F1010A0490AAEB0700019044E043
:10565000012F00DA01270021112F01DD112000E0C8
:105660003846CDE9000106A90EA8FFF7A1FCDDE947
:105670000F010E9A0391002104910092BA4621076E
:105680000CD40399514500DA8A46BAF1010F05DDC1
:10569000009AAAF10101515C302908D0B84202DA1F
:1056A00010F1040F06DA0121CDE9011015E0AAF18D
:1056B0000101E9E7002805DC049901440491AAEB03
:1056C000000102E0411C514500DD8A460499401A60
:1056D000401C01904FF000400290200704D4019834
:1056E000504501DBCDF8048000208DF84F00029872
:1056F0000DF14F07B0F1004F25D02B200E900298EE
:105700004FF0020800280CDA404202902D200E9043
:1057100007E00A210298FAF74AFE3031029007F8B2
:10572000011DB8F10001A8F10108F2DC029800287F
:10573000EFD1791E0E980870307800F0200040F00C
:10574000450007F8020D12A8C01B00F107081498C5
:10575000007800B1012000EB0A01019801EBE07133
:1057600005984144401A401E0590E00306D45B466C
:105770002146179A059800F05DF8054414980078C2
:1057800018B15A46179990476D1CE00324D55B4623
:105790002146179A059800F04DF805441CE004983E
:1057A000002807DBDDE90301884203DD0098405C47
:1057B000179901E0179930205A469047049805F14F
:1057C0000105401C04900198401E019004D12E2038
:1057D0005A46179990476D1CBAF10001AAF1010AC7
:1057E000DDDC05E017F8010B5A46179990476D1C50
:1057F000B8F10001A8F10108F4DC5B462146179AD4
:105800000598ABE62D0000002B00000020000000F2
:105810002DE9F041044600251E461746880404D4AD
:1058200005E039462020B0476D1C641EF9D5284696
:10583000BDE8F0812DE9F041044600251E46904662
:10584000C80301D5302700E02027880404D505E0EF
:1058500041463846B0476D1C641EF9D52846BDE860
:10586000F081000010B500F087F80548FCF761F9F9
:10587000BDE8104003494FF470620148FBF73ABCA1
:1058800018000024020A801B2DE9F84F04464FF04F
:105890000000834682468146804607460646054606
:1058A000009011B1012927D053E0052A0ED2DFE87C
:1058B00002F0030515191B00042010E002204FF030
:1058C000190A4FF0AE0B0090504681464FF0010888
:1058D0000021A1601D270A2635463AE002200090EB
:1058E0008B2004E00120FAE7012000903B204FF0DC
:1058F000140A83465046E8E7521F052A1FD2DFE804
:1059000002F003090F1319001D274FF001080A26A2
:10591000354614E019274FF00108062635460EE0FB
:1059200013274FF0010802E00E274FF0010805266B
:10593000354604E00D274FF00108022635464FF0AA
:10594000140A012000904FF440714FF03B0BD146F8
:10595000A1602046FBF7CBFC04F1140100982663FC
:1059600081E8010AC4E90A57C4E908A82046BDE84D
:10597000F84FFBF733BF000010B58AB002AA002031
:1059800002210190012482E81300059001A90690EC
:105990000848FBF754FC02220648012311460094F4
:1059A000FBF78CFC012203481146FBF71BFC0AB0F5
:1059B00010BD00001800002491F83C20012A0ED0F0
:1059C000022A19D0032A1ED0042A21D191ED131ADC
:1059D000D1ED110A91ED100A098800F0A1BB0A88E7
:1059E00091ED122AD1ED151A91ED141AD1ED110A8B
:1059F00091ED100A00F00ABBD1ED110A91ED100AE9
:105A0000098800F067BB91ED110A098800F088BD94
:105A1000704702460B4610B5087800F00F00506042
:105A2000087800099060B1F8010040BAD060C978E8
:105A30001C79090141EA1411116119795C7901F0AD
:105A40000F0144EA01215161D2ED2C0A1021B1EE7F
:105A5000600A00F07BFD82ED080AD2ED2D0A106984
:105A60000C21B1EE600A00F071FD82ED090AD2ED61
:105A70002E0A50690C21B1EE600A00F067FD82ED3C
:105A80000A0A987900EE100AB8EE400A82ED0D0A73
:105A9000D87900EE100AB8EE400A82ED0E0A10BD69
:105AA00070B54FF488741C482146FAF775FC1B4802
:105AB0002146FAF771FC1A482146FAF76DFC19489D
:105AC0002146FAF769FC18482146FAF765FC1748A1
:105AD0002146FAF761FC1048032600220423012125
